:020000040800F2
:10000000D80D00209D100008D9010008DB01000870
:10001000DF010008E3010008E7010008000000001C
:10002000000000000000000000000000EB010008DC
:10003000ED01000800000000EF010008F1010008D8
:10004000B7100008B7100008B7100008B710000874
:10005000B7100008B7100008B7100008B710000864
:10006000B7100008B7100008B7100008B710000854
:10007000B7100008B7100008B7100008B710000844
:10008000B7100008B7100008B7100008B710000834
:10009000B7100008B7100008B7100008B710000824
:1000A000B7100008B7100008B7100008B710000814
:1000B000B7100008B7100008B7100008B710000804
:1000C000B7100008B7100008B7100008B7100008F4
:1000D000B710000871050008B7100008B710000835
:1000E000B7100008B7100008B7100008B7100008D4
:1000F000B7100008B7100008B7100008B7100008C4
:10010000B7100008B7100008B7100008B7100008B3
:10011000B7100008B7100008B7100008B7100008A3
:10012000B7100008B7100008B7100008B710000893
:10013000DFF80CD002F094F80048004745010008B1
:10014000D80D0020002500F03FFF4FF4A06001F023
:100150003BFD00F0E7FC00F03FFE4FF4165000F0CE
:1001600039F931E01948007801282DD11848007874
:100170000007000E1649087008460078497840EAE2
:100180000105134880780007000E11498870084661
:100190008078C97840EA01042146284600F0FCF93D
:1001A00000F0B6FA0A4800780A4908700848407812
:1001B00048700748807888700548C078C87000F09B
:1001C00072FC002001490870CCE7000030000020DC
:1001D0002800002022000020704700BFFEE700BF7B
:1001E000FEE700BFFEE700BFFEE7704770477047BD
:1001F000704700000CB50020019000906C4800682A
:1002000040F480306A49086000BF6948006800F423
:10021000003000900198401C0190009818B9019896
:10022000B0F5A06FF1D16248006800F4003010B161
:100230000120009001E0002000900098012843D1A7
:100240005C48006840F010005A49086008460068A1
:1002500020F0030008600846006840F002000860D3
:10026000534840685249486008464068486008461C
:10027000406840F4806048600846406820F47C1084
:1002800048600846406840F4E81048600846006846
:1002900040F08070086000BF4548006800F00070C2
:1002A0000028F9D04248406820F0030040494860E7
:1002B0000846406840F00200486000BF3C48406883
:1002C00000F00C000828F9D10CBD10B5FFF792FF23
:1002D00010BD10B53648006840F001003449086090
:1002E000084640683449084031494860084600687B
:1002F000324908402E4908600846006820F48020F2
:1003000008600846406820F4FE0048604FF41F0073
:100310008860FFF7DAFF4FF000602949086010BDE0
:1003200010B5002100200022214B5B6803F00C0176
:1003300021B1042906D0082928D107E0214B224CFD
:10034000236027E01F4B204C236023E0184B5B68A1
:1003500003F47010164B5B6803F48032022303EB46
:10036000904022B9194B4343174C23600DE0104BCA
:100370005B6803F4003323B1144B4343124C2360F6
:1003800003E0104B4343104C236003E00D4B0E4C35
:10039000236000BF00BF064B5B68C3F303130C4C24
:1003A000E15C094B1B68CB40074C236010BD00008B
:1003B00000100240002002400000FFF8FFFFF6FEA0
:1003C00008ED00E000127A000000002000093D0066
:1003D0000400002010B586B004460121042001F07D
:1003E0008BF90121880301F087F94FF40070ADF813
:1003F000140003208DF8160018208DF8170005A9A9
:100400005D4800F0BDFE4FF48060ADF8140004209C
:100410008DF8170005A9584800F0B2FE25208DF888
:10042000000001208DF8010002208DF8020001205B
:100430008DF80300684601F0CCFB01940020ADF874
:100440000800ADF80A00ADF80C00ADF810000C2063
:10045000ADF80E0001A9494801F0F5F9012240F27A
:100460002551464801F087FA0121444801F077FA06
:1004700006B010BD70B505460C464048844202D116
:100480003F480078B8B93F48844202D13C484078A0
:1004900088B93D48844202D13948807858B93B48F0
:1004A000844202D13648C07828B9394884420DD1F7
:1004B0003348007950B103E02946204601F0BCFAE8
:1004C0004021204601F026FB0028F5D070BD70B514
:1004D00006460C46002531465520FFF7CBFF314636
:1004E000AA20FFF7C7FF20783146FFF7C3FF6078E7
:1004F0003146FFF7BFFFA0783146FFF7BBFF2078FA
:10050000FF3061780844A1780844C4F8040100BFB2
:100510000DE0E11C485D3146FFF7ACFFE01C405D9B
:10052000D4F804110844C4F80401681C85B260784A
:10053000A842EEDC00250BE0C5F10302D200D4F89E
:1005400004111141C8B23146FFF794FF681C85B20F
:10055000042DF1DB70BD0F490860704770B504468B
:100560000D46E0B20B490968FFF784FF204670BDD5
:1005700010B500F083F910BD0008014000380140BB
:10058000140000200044004000480040004C00409F
:10059000005000401C0000201F284AD00EDC1C2800
:1005A00029D006DC002876D01A2810D01B2873D159
:1005B00017E01D2829D01E28F9D130E0A0F1200233
:1005C000052A69D2DFE802F03F49535D690001293D
:1005D00002D10122F54B1A7011B90022F34B1A70A7
:1005E00094E0012902D10122F14B1A7011B90022C5
:1005F000EF4B1A708AE0012902D10122ED4B1A70EB
:1006000011B90022EB4B1A7080E0012902D10122BE
:10061000E94B1A7011B90022E74B1A7076E00129F4
:1006200002D10122E54B1A7011B90022E34B1A7076
:100630006CE0012902D10122E14B1A7011B90022AC
:10064000DF4B1A7062E0012902D10122DD4B1A70E2
:1006500011B90022DB4B1A7058E0012902D10122A6
:10066000D94B1A7011B90022D74B1A704EE00129EC
:1006700002D10122D54B1A7011B90022D34B1A7046
:1006800044E0012902D10122D14B1A7011B9002294
:10069000CF4B1A703AE00AE037E0012902D101227B
:1006A000CC4B1A7011B90022CA4B1A702EE059BBFC
:1006B0000022C94B1A60C94BC3F8A021C64B0833AE
:1006C0001A601B1D1A601B1D1A601B1D1A601B1D62
:1006D0001A601B1D1A601B1D1A60C14B1A60C14BAA
:1006E0001A601B1D1A601B1D1A60BF4B1A601B1D70
:1006F0001A601B1D1A601B1D1A601B1D1A601B1D32
:100700001A60BA4BC3F8982100BF00BF00BF704702
:10071000A6480078012801D1AF490860A3480078B5
:1007200010B90020AC490860A1480078012802D126
:10073000A949091D08609E48007818B90020A649FB
:10074000091D08609B480078012802D1A2490831A0
:1007500008609848007818B900209F49083108605F
:1007600095480078012802D19B490C3108609248D5
:10077000007818B9002098490C3108608F4800783B
:10078000012802D19449103108608C48007818B9CA
:10079000002091491031086089480078012802D171
:1007A0008D49143108608648007818B900208A49BC
:1007B0001431086083480078012802D18649183135
:1007C00008608048007818B9002083491831086013
:1007D0007D480078012802D17F491C3108607A48A1
:1007E000007818B900207C491C31086077480078EF
:1007F000012802D17849203108607448007818B97E
:10080000002075492031086071480078012801D125
:10081000734908606E48007810B90020704908607C
:100820006C480078012801D16E4908606948007859
:1008300010B900206B490860704770B503460C463C
:100840004FF6FF71002212E09E5C714000250AE025
:1008500001F0010626B149104AF20106714000E09C
:1008600049106E1CF5B2082DF2DB561CB2B2A24242
:10087000EADB081240EA0126B0B270BD10B540F2C2
:1008800025515B4801F05CF900287DD0584801F003
:10089000D7F8C4B2AA2C05D15648007810B9012067
:1008A0005549087054480078012802D1204600F0CC
:1008B00022FB51480078002866D14E48007808286D
:1008C00073D2DFE800F00423415162AFBFC74B4849
:1008D000008884420AD14A484A4908604A4804705C
:1008E00044480078401C434908700EE0002041490C
:1008F00008704649087046490870464908704649DC
:100900000870464908803F490860CAE0062C0BD1B0
:100910003A480078424908700846447035480078E3
:10092000401C344908700EE00020324908703749F5
:1009300008703749087037490870374908703749D7
:10094000088030490860ACE03148047000782D49D7
:10095000096808702E480078314988702548007869
:10096000401C244908709CE0284804700078254900
:1009700009684870254800782949C8701D480078E2
:10098000401C1C4908708CE08CE022480470007800
:100990001C49096888701F4800782149087115486A
:1009A0000078401C134908707BE079E03200002099
:1009B00033000020340000203500002036000020E5
:1009C0003700002038000020390000203A000020C5
:1009D0003B0000203C0000209C01234200002342F9
:1009E000A8812142A8012242808122420080224225
:1009F000003801403D000020310000205000002060
:100A00002800002044000020200000203F0000209B
:100A10003E00002040000020410000204200002055
:100A20006C00002032480470007832490968C870B0
:100A30002F4800783049487130480078401C2F49D1
:100A400008702EE02E4804802C480078401C2B496A
:100A5000087026E02A48007844EA00202549096801
:100A6000888006212448FFF7E8FE22490968898822
:100A7000884205D101201F49096888712149087001
:100A800000201E490870204908702049087020493C
:100A90000870174908701A4908801649086000BF95
:100AA00000BF00BF10BD70B500241A481A49086085
:100AB0001A4800781A4908700620487007E016485E
:100AC0000068015DA01C164A1154601CC4B2042CBD
:100AD000F5DB06211248FFF7B0FE05462812104943
:100AE0008871CD71012208210D4800F045F970BDD3
:100AF00041000020440000206C0000203D00002048
:100B000042000020300000203F0000203E00002076
:100B1000400000202200002048000020500000205B
:100B20007001002008B501210C2000F0E5FD012135
:100B3000302000F0E1FD0121402000F0DDFD10201B
:100B40008DF8030003208DF802002020ADF800008E
:100B50006946844800F014FB2021824800F0BFFB66
:100B60004FF40060ADF8000069467F4800F008FBD4
:100B70004FF400617D4800F0B2FB8020ADF800002A
:100B800069467B4800F0FCFA8021794800F0A7FB19
:100B90004FF48070ADF800006946754800F0F0FA37
:100BA0004FF48071724800F09AFB4FF40070ADF87A
:100BB000000069466E4800F0E3FA4FF400716C489B
:100BC00000F08DFB4FF48060ADF800006946684886
:100BD00000F0D6FA4FF48061654800F080FB4FF4D6
:100BE0000060ADF800006946614800F0C9FA4FF4B2
:100BF00000615F4800F073FB4FF48050ADF80000D7
:100C000069465B4800F0BCFA4FF48051584800F048
:100C100066FB4FF40050ADF800006946544800F000
:100C2000AFFA4FF40051524800F059FB4FF48040A6
:100C3000ADF8000069464E4800F0A2FA4FF480413A
:100C40004B4800F04CFB4FF40040ADF80000694603
:100C5000474800F095FA4FF40041454800F03FFB4B
:100C60004FF48060ADF800006946404800F088FA13
:100C70004FF480613D4800F032FB4FF48060ADF8E6
:100C800000006946374800F07BFA4FF48061354830
:100C900000F025FB4FF40060ADF8000069463148D4
:100CA00000F06EFA4FF400612E4800F018FB4FF48C
:100CB0008050ADF8000069462A4800F061FA4FF410
:100CC0008051284800F00BFB0120ADF80000694678
:100CD000284800F055FA0121264800F000FB0220C8
:100CE000ADF800006946234800F04AFA0221214885
:100CF00000F0F5FA0420ADF8000069461D4800F048
:100D00003FFA04211B4800F0EAFA0820ADF8000081
:100D10006946184800F034FA0821164800F0DFFA56
:100D20001020ADF800006946124800F029FA1021A1
:100D3000104800F0D4FA2020ADF8000069460D48B4
:100D400000F01EFA20210B4800F0C9FA4020ADF84F
:100D500000006946074800F013FA4021054800F0FA
:100D6000BEFA08BD0010014000080140000C01401F
:100D700000180140001401402DE9F04105460E46DF
:100D800017460024012F0FD100BF0BE000BF402108
:100D9000064800F0BFFE0028F9D0295D034800F0A6
:100DA0004BFE641CB442F1DBBDE8F0810038014029
:100DB00001460888704730B503460C4615460022A8
:100DC00007E01846FFF7F4FF24F812009B1C501CA4
:100DD00082B2AA42F5DB30BD00B5022273497448E5
:100DE000FFF7E9FF022273497148801CFFF7E3FF18
:100DF00000BD2DE9F04105460E461746002407E0E8
:100E000036F81410284601F0B4F8AD1C601C84B20A
:100E1000BC42F5DBBDE8F0812DE9F05F80468A46F3
:100E20001746B8F1006F02D36348804501D3BDE88F
:100E3000F09F00F056FFA8F1006B4FEADB25CBF3E3
:100E40004909C9F58064A74200DC3C464DE04FF0FB
:100E5000006101EBC5204A145849FFF7ACFF00269A
:100E60000BE009EB0600554931F810004FF6FF7111
:100E7000884200D003E0701C86B2A642F1DB00BFBE
:100E8000A6421BDA4FF0006101EBC52000F06EFFB7
:100E9000002608E03AF8160006EB0901474A22F856
:100EA0001100701C86B2A642F4DB4FF0006101EB2A
:100EB000C5204A144149FFF79CFF04E022465146F1
:100EC0004046FFF796FFA74200D10FE06D1C4FF0A0
:100ED00000090AEB440AA044381B87B2B7F5806FBB
:100EE00002DD4FF4806400E03C46B0E700BF00F054
:100EF00004FF00BF9BE710B504463148008830B1BD
:100F000001280CD0022812D0032840D117E0AA2CC7
:100F100004D12B480088401C294908803BE0234825
:100F2000048027480088401C2549088033E0214878
:100F3000048023480088401C214908802BE0BB2CFA
:100F400016D100201E490880022218491848FFF7D0
:100F500063FF022217491648801CFFF75DFF00203F
:100F600018490870012211461248FFF705FF0DE0ED
:100F700000200E4908800F49088011490880114956
:100F80000870012211460B48FFF7F6FE03E000202F
:100F90000B49088000BF00BF10BD13B504460122F5
:100FA00001A92046FFF738FF1CBD00004E000020BD
:100FB00000C003085000002000000408D4010020F5
:100FC0004C0000203100002010B56FF0040000F04C
:100FD0004AFE2E4800682E49B0FBF1F02D490870FA
:100FE0000846007800EB4001C1EBC0104FF6FF71DE
:100FF00001EAC0002849088010BD0146254A127840
:101000004A434FF0E0235A6100229A611A4612695E
:1010100042F001021A6100BF4FF0E022106900F0B7
:1010200001021AB100F48032002AF5D04FF0E0221C
:10103000126922F001024FF0E0231A6100229A6146
:1010400070470146144A12884A434FF0E0235A6120
:1010500000229A611A46126942F001021A6100BF29
:101060004FF0E022106900F001021AB100F4803262
:10107000002AF5D04FF0E022126922F001024FF071
:10108000E0231A6100229A617047000000000020EE
:1010900000127A00520000205400002006488047C9
:1010A00006480047FEE7FEE7FEE7FEE7FEE7FEE74D
:1010B000FEE7FEE7FEE7FEE7D30200083101000885
:1010C00010B50446CC48844208D10121042000F028
:1010D0002DFB0021042000F029FB46E0C748844294
:1010E00008D10121082000F021FB0021082000F098
:1010F0001DFB3AE0C248844208D10121102000F0D3
:1011000015FB0021102000F011FB2EE0BD488442A9
:1011100008D10121202000F009FB0021202000F04F
:1011200005FB22E0B848844208D10121402000F0AC
:10113000FDFA0021402000F0F9FA16E0B34884429D
:1011400008D10121802000F0F1FA0021802000F078
:10115000EDFA0AE0AE48844207D10121801500F083
:10116000E5FA0021A01500F0E1FA10BD10B501214B
:10117000084600F0DBFA0021012000F0D7FA10BD8C
:101180002DE9F0410246002500260020002300241E
:10119000002791F803C00CF00F0591F803C00CF084
:1011A000100CBCF1000F03D091F802C04CEA050509
:1011B00091F800C0BCF1000F31D0146800202BE082
:1011C0004FF0010C0CFA00F3B1F800C00CEA030672
:1011D0009E4220D183004FF00F0C0CFA03F7BC4362
:1011E00005FA03FC4CEA040491F803C0BCF1280F93
:1011F00006D14FF0010C0CFA00FCC2F814C00AE052
:1012000091F803C0BCF1480F05D14FF0010C0CFA66
:1012100000FCC2F810C0401C0828D1D31460B1F8FB
:1012200000C0BCF1FF0F34DD546800202EE000F157
:10123000080C4FF0010808FA0CF3B1F800C00CEAF2
:1012400003069E4221D183004FF00F0C0CFA03F7E6
:10125000BC4305FA03FC4CEA040491F803C0BCF15A
:10126000280F05D100F1080C08FA0CF8C2F8148018
:1012700091F803C0BCF1480F07D100F1080C4FF002
:10128000010808FA0CF8C2F81080401C0828CED3D8
:101290005460BDE8F0814FF6FF710180022181703A
:1012A0000421C17070470246002093680B400BB1C7
:1012B000012000E0002070470146886880B2704736
:1012C00002460020D3680B400BB1012000E0002053
:1012D00070470146C86880B270470161704741613C
:1012E00070470AB1016100E041617047C160704719
:1012F0004FF480320A43826181618261826982692E
:10130000704702460020434B18684FF68073184020
:1013100040EA021008433F4B186070473E49C861DD
:101320007047F0B50A46002300240021002500F094
:101330000046B6F1004F02D1364EF16901E0354E5C
:101340007168C0F3034583B200F44016B6F5401F40
:1013500008D121F070612F4E766826F070662D4F0F
:101360007E6012E000F48016B6F5801F06D10326D9
:1013700006FA05F4A14341F0706106E0460D36011E
:1013800003FA06F6B14341F0706122B1460D360111
:1013900003FA06F6314300F00046B6F1004F02D1E1
:1013A0001C4EF16101E01B4E7160F0BD30B50022B2
:1013B0008B071C0F0F2303FA04F2164B08338C1013
:1013C00053F824309343134C08348D1044F82530DF
:1013D00023468C1053F824308C07240F00FA04F4B1
:1013E00023430C4C08348D1044F8253030BD0A4995
:1013F000DC3108607047000000080140000C01402B
:10140000001001400014014000180140001C014080
:10141000002001400000014000002042DF48006839
:1014200040F00100DD49086008464068DC4908409A
:10143000DA49486008460068DA490840D749086038
:101440000846006820F4802008600846406820F4C0
:10145000FE0048604FF41F0088607047CF4909685C
:1014600021F48031CD4A11601146096821F48021B0
:101470001160B0F5803F03D0B0F5802F0ED106E0AB
:10148000C649096841F48031C44A116007E0C34984
:10149000096841F4A021C14A116000E000BF00BF0B
:1014A000704710B501460022002300204A11012A8E
:1014B00002D1BA4C236806E0022A02D1B74C236A53
:1014C00001E0B64C636A01F01F02012494401C4005
:1014D0000CB1012000E0002010BD38B500200090C4
:1014E0000024002500BF3120FFF7DBFF05460098F0
:1014F000401C00900098B0F5A06F01D0002DF2D0F4
:101500003120FFF7CEFF08B1012400E0002420467F
:1015100038BD01460020A14A106820F0F80040EADA
:10152000C10010607047A049086070470246002063
:101530009A4B586820F47C1042EA01031843974BF9
:101540005860704798490866704701460020934AE2
:10155000506820F003000843506070478F4840688F
:1015600000F00C007047014600208C4A506820F0C3
:10157000F00008435060704701460020874A5068D9
:1015800020F4E06008435060704701460020834A21
:10159000506820F4605040EAC1005060704729B1A3
:1015A0007E4A527A02437D4B5A7204E07B4A527A59
:1015B00082437A4B5A7270477B49D8310860704732
:1015C00001460020754A506820F4404008435060AE
:1015D00070470021714A20321170704A82F8201041
:1015E000012802D004280AD104E001216B4A2032EC
:1015F000117005E00521694A2032117000E000BF3A
:1016000000BF70476949086070476449096A01432F
:10161000624A11627047654944390860704730B5C5
:1016200000210022002400235C4D6D6805F00C01B0
:1016300021B1042905D0082923D105E05C4D0560BE
:1016400022E05B4D05601FE0544D6D6805F470129B
:10165000524D6D6805F48034022505EB92421CB9A9
:10166000544D554305600BE04C4D6D6805F4003555
:101670001DB1504D5543056002E04D4D5543056089
:1016800002E04B4D056000BF00BF444D6D6805F0A2
:10169000F0010909484D6B5C0568DD4045603F4D30
:1016A0006D6805F4E061090A434D6B5C4568DD40F7
:1016B00085603A4D6D6805F46051C90A3E4D6B5C1A
:1016C0004568DD40C560354D6D6805F44041890BC6
:1016D0003A4D6B5CC568B5FBF3F5056130BD29B1CA
:1016E0002E4A526902432D4B5A6104E02B4A52693B
:1016F00082432A4B5A61704729B1284A92690243B2
:10170000264B9A6104E0254A92698243234B9A61F1
:10171000704729B1214AD2690243204BDA6104E0C3
:101720001E4AD26982431D4BDA61704729B11B4AB8
:10173000D2680243194BDA6004E0184AD268824347
:10174000164BDA60704729B1144A12690243134BF1
:101750001A6104E0114A12698243104B1A61704702
:1017600012494039086070470F49C86470470B49F7
:10177000C87170470948406A40F080700749486264
:10178000704701460020054A92680A400AB10120CC
:1017900000E0002070470149887270470010024045
:1017A0000000FFF8FFFFF6FE0000424280044242C4
:1017B00000127A0000093D0056000020660000205B
:1017C00010B50446FB48844209D101218803FFF784
:1017D000ADFF00214FF48040FFF7A8FF32E0F6484C
:1017E000844209D101214804FFF7ADFF00214FF4E5
:1017F0000030FFF7A8FF25E0F048844209D101211D
:101800008804FFF7A0FF00214FF48020FFF79BFF23
:1018100018E0EB48844209D10121C804FFF793FF87
:1018200000214FF40020FFF78EFF0BE0E5488442D3
:1018300008D101210805FFF786FF00214FF4801031
:10184000FFF781FF10BD2DE9F04786B005460E4633
:101850000024A24600BFA1460027B08900B100BF06
:101860002F462C8A4CF6FF700440F08804432C82EB
:10187000AC894EF6F3100440B08831890843718971
:1018800008430443AC81AC8A4FF6FF400440B08962
:101890000443AC8201A8FFF7C2FEC648874202D1CA
:1018A000DDF810A001E0DDF80CA0A88900F40040EC
:1018B00040B10AEBCA0000EB0A1031684900B0FBE6
:1018C000F1F807E00AEBCA0000EB0A103168890062
:1018D000B0FBF1F86420B8FBF0F0040120096421AA
:1018E00001FB1089A88900F4004040B1322000EBD0
:1018F000C900B0FBF1F000F00700044308E032201B
:1019000000EB09106421B0FBF1F000F00F0004437C
:101910002C8106B0BDE8F0874FF41651016000211C
:101920008180C18001810C2141810021818170472A
:1019300010B502460020108A4FF2FF0318400B88B2
:101940004C8823438C882343CC882343184310823C
:1019500010BD0021018041808180C180704721B18C
:10196000828942F40052828104E082894DF6FF733D
:101970001A4082817047F0B50346002400260025F6
:10198000002040F66A17B94200D100BF1846C1F3E3
:10199000421401F01F06012707FA06F5012C01D1B8
:1019A0000C3004E0022C01D1103000E014301AB1E8
:1019B00007682F43076002E00768AF430760F0BD88
:1019C0001AB1838A0B43838202E0838A8B4383822A
:1019D0007047028A4FF6F0731A400282028A0A4365
:1019E0000282704782894FF2FF731A408281828996
:1019F0000A438281704721B1828942F002028281CA
:101A000004E082894FF6FD731A4082817047028A92
:101A10004FF6DF731A400282028A0A43028270473D
:101A200021B1028A42F48042028204E0028A4BF62B
:101A3000FF731A4002827047C1F308028280704728
:101A400001468888C0F308007047818941F0010190
:101A500081817047028BD2B20283028B42EA01225B
:101A600002837047028B02F47F420283028B0A4397
:101A70000283704721B1828A42F02002828204E010
:101A8000828A4FF6DF731A408282704721B1828AC0
:101A900042F01002828204E0828A4FF6EF731A400D
:101AA0008282704721B1828A42F00802828204E079
:101AB000828A4FF6F7731A408282704721B1828979
:101AC00042F40042828103E08289C2F30E028281E5
:101AD000704721B1828A42F40062828204E0828AE5
:101AE0004FF2FF731A4082827047828A4FF6FB736F
:101AF0001A408282828A0A438282704721B1828A96
:101B000042F00202828204E0828A4FF6FD731A409C
:101B10008282704702460020B1F5007F00D100BFED
:101B200013880B400BB1012000E00020704701F446
:101B30000072B2F5007F00D100BFCA430280704737
:101B400070B50246002400230025002040F66A16E6
:101B5000B14200D100BFC1F3421501F01F030126BD
:101B600006FA03F3012D02D19689334006E0022DD7
:101B700002D1168A334001E0968A33400C120126C6
:101B800006FA04F41688344013B10CB1012000E0C9
:101B9000002070BD10B50022002340F66A14A14257
:101BA00000D100BF0A1201249440A3B2DC43048098
:101BB00010BD0000003801400044004000480040D3
:101BC000004C00400050004031490143314A11604F
:101BD000704770B5002100230F22C47804B32D4C48
:101BE000246804F4E064C4F5E064210AC1F104034C
:101BF000CA40447804FA03F184781440214309016F
:101C0000254C0678A155047804F01F050124AC404A
:101C100005786D11AD0005F1E025C5F8004109E03A
:101C2000047804F01F050124AC401C4D06787611A1
:101C300045F8264070BD1A4A0A400243154B1B1F47
:101C40001A60704739B1134A121D12680243114BD2
:101C50001B1D1A6006E00F4A121D126882430D4BCD
:101C60001B1D1A607047042808D14FF0E021096954
:101C700041F004014FF0E022116107E04FF0E02154
:101C8000096921F004014FF0E02211617047000062
:101C90000000FA050CED00E000E400E080E100E067
:101CA00080FFFF1F01460020FE4A106800F0380048
:101CB000084310607047FB49096821F00801F94AA0
:101CC000116011460968014311607047F5490968C0
:101CD00021F01001F34A11601146096801431160B7
:101CE0007047F148EF494860F04848607047EE4857
:101CF000EC494860ED4848607047EA48006940F0A8
:101D00008000E84908617047E648006940F08000BB
:101D1000E449086170470420E249C96801F0010103
:101D200009B101200EE0DF49C96801F0040109B1E1
:101D3000022007E0DB49C96801F0100109B1032066
:101D400000E00420704700B502460423FFF7E3FFDC
:101D5000034603E0FFF7DFFF0346521E012B01D1CC
:101D6000002AF7D102B90523184600BD30B5044654
:101D700004254FF43020FFF7E6FF0546042D17D168
:101D8000C848006940F00200C6490861084644613D
:101D9000006940F0400008614FF43020FFF7D3FFA6
:101DA0000546C048006941F6FD710840BD4908611B
:101DB000284630BD10B504244FF43020FFF7C3FF90
:101DC0000446042C16D1B748006940F00400B54918
:101DD00008610846006940F0400008614FF4302077
:101DE000FFF7B1FF0446AF48006941F6FB710840B8
:101DF000AC490861204610BD00B502460423FFF738
:101E00008AFF034603E0FFF786FF0346521E012BBD
:101E100001D1002AF7D102B90523184600BD10B53B
:101E200004244FF43020FFF7E7FF0446042C16D1BA
:101E30009C48006940F004009A490861084600691E
:101E400040F0400008614FF43020FFF7D5FF044612
:101E50009448006941F6FB710840924908612046A8
:101E600010BD00208F49C96901F0020109B10120AC
:101E700000E00020704730B5A5250424FFF7F1FFEE
:101E800000B100254FF43020FFF75DFF0446042C1D
:101E90003AD185488349886084488860084600694B
:101EA00040F0200008610846006940F040000861E9
:101EB0004FF43020FFF747FF0446042C1BD179482C
:101EC000006941F6DF7108407649086108460069FB
:101ED00040F01000086176480580E002FFF733FF0C
:101EE0000446052C10D06F48006941F6EF71084098
:101EF0006C49086108E0052C06D06A48006941F683
:101F0000EF71084067490861204630BD78B5064644
:101F10000C46042500200090E802FFF714FF054658
:101F2000042D24D15F48006940F001005D4908613B
:101F30003480E802FFF707FF0546042D10D1B01CDE
:101F40000090200C00990880E802FFF7FCFE05468F
:101F50005448006941F6FE7108405249086106E0A4
:101F60005048006941F6FE7108404E490861284614
:101F700078BD70B504460D460426F002FFF7E3FE77
:101F80000646042E11D14748006940F0010045493A
:101F900008612580F002FFF7D6FE06464148006939
:101FA00041F6FE7108403F490861304670BD70B58A
:101FB00005460E460424E002FFF7C5FE0446042C45
:101FC00017D1394837498860384888600846006921
:101FD00040F0100008612E80E002FFF7B4FE0446D6
:101FE000052C06D02F48006941F6EF7108402D49B5
:101FF0000861204670BD2DE9F04304464FF6FF7698
:102000003746B046B1460425E443E6B2C4F3072799
:10201000C4F307484FEA1469E802FFF794FE054647
:10202000042D49D120481F4988602048886008460F
:10203000006940F010000861FF2E06D01C480830EF
:102040000680E802FFF77FFE0546042D08D1FF2F2A
:1020500006D017480A300780E802FFF774FE0546ED
:10206000042D0AD1B8F1FF0F07D011480C30A0F8A9
:102070000080E802FFF767FE0546042D0AD1B9F19A
:10208000FF0F07D00A480E30A0F80090E802FFF7D3
:102090005AFE0546052D0FD00248006941F6EF7142
:1020A000084007E00020024023016745AB89EFCDDF
:1020B00000F8FF1F664908612846BDE8F08330B587
:1020C000054604244FF43020FFF73DFE0446042C5F
:1020D00041D160485E4988605F4888600846006971
:1020E00040F0200008610846006940F040000861A7
:1020F0004FF43020FFF727FE0446042C22D1544829
:10210000006941F6DF7108405149086108460069DD
:1021100040F0100008611DB100205049088002E025
:10212000A5204E4908804FF43020FFF70CFE0446EE
:10213000052C10D04648006941F6EF71084044492B
:10214000086108E0052C06D04148006941F6DF71BE
:1021500008403F490861204630BDF0B505460E46AF
:10216000174604243B483A4988603B488860E002AF
:10217000FFF7E9FD0446042C19D13548006940F009
:1021800010003349086147F0F800304328433349D1
:10219000891C0880E002FFF7D6FD0446052C06D016
:1021A0002B48006941F6EF71084029490861204633
:1021B000F0BD2748C069800870472548006A70470D
:1021C00000202349096801F0200109B1012000E045
:1021D0000020704729B11E4A126902431C4B1A6144
:1021E00004E01B4A12698243194B1A617047014689
:1021F0000020012908D1164AD26902F001020AB171
:10220000012008E0002006E0114AD2680A400AB125
:10221000012000E0002070470D49C860704704208D
:102220000B49C96801F0010109B101200EE008491C
:10223000C96801F0040109B1022007E00449C96836
:1022400001F0100109B1032000E0042070470000F4
:102250000020024023016745AB89EFCD00F8FF1F46
:10226000064C074D06E0E06840F0010394E80700E3
:1022700098471034AC42F6D3FDF75EFFA422000865
:10228000C422000802E008C8121F08C1002AFAD1BF
:1022900070477047002001E001C1121F002AFBD1E6
:1022A00070470000C4220008000000206C000000FD
:1022B00084220008302300086C0000206C0D000010
:1022C0009422000800A24A04000000000000000060
:1022D00001020304060708090000000000000000D6
:1022E00000000000000000000000000000000000EE
:1022F00000000000000000000000000000000000DE
:1023000000000000000000000000000000000000CD
:1023100000000000000000000000000000000102BA
:10232000030401020304060708090204060800006A
:0400000508000131BD
:00000001FF
