:020000040800F2
:10000000D0050020E90D0008D5010008D70100083F
:10001000DB010008DF010008E30100080000000028
:10002000000000000000000000000000E7010008E0
:10003000E901000800000000EB010008ED010008E4
:10004000030E0008030E0008030E0008030E00084C
:10005000030E0008030E0008030E0008030E00083C
:10006000030E0008030E0008030E0008030E00082C
:10007000030E0008030E0008030E0008030E00081C
:10008000030E0008030E0008030E0008030E00080C
:10009000030E0008030E0008030E0008030E0008FC
:1000A000030E0008030E0008030E0008030E0008EC
:1000B000030E0008030E0008030E0008030E0008DC
:1000C000030E0008030E0008030E0008030E0008CC
:1000D000030E00086D050008030E0008030E00085B
:1000E000030E0008030E0008030E0008030E0008AC
:1000F000030E0008030E0008030E0008030E00089C
:10010000030E0008030E0008030E0008030E00088B
:10011000030E0008030E0008030E0008030E00087B
:10012000030E0008030E0008030E0008030E00086B
:10013000DFF80CD001F05CFC0048004745010008E6
:10014000D0050020002500F0E5FD4FF4A06001F08F
:10015000E1FB00F099FC4FF4165000F039F931E062
:100160001948007801282DD1184800780007000EA2
:100170001649087008460078497840EA0105134896
:1001800080780007000E1149887008468078C97889
:1001900040EA01042146284600F0FCF900F081FA0B
:1001A0000A4800780A4908700848407848700748AB
:1001B000807888700548C078C87000F035FC002051
:1001C00001490870CCE70000300000202800002022
:1001D00022000020704700BFFEE700BFFEE700BF1F
:1001E000FEE700BFFEE770477047704770470000AA
:1001F0000CB50020019000906C48006840F48030FD
:100200006A49086000BF6948006800F40030009047
:100210000198401C0190009818B90198B0F5A06FA2
:10022000F1D16248006800F4003010B10120009064
:1002300001E0002000900098012843D15C4800684C
:1002400040F010005A4908600846006820F003009A
:1002500008600846006840F00200086053484068A3
:10026000524948600846406848600846406840F483
:10027000806048600846406820F47C10486008466A
:10028000406840F4E81048600846006840F080701C
:10029000086000BF4548006800F000700028F9D0F1
:1002A0004248406820F003004049486008464068E2
:1002B00040F00200486000BF3C48406800F00C007D
:1002C0000828F9D10CBD10B5FFF792FF10BD10B58D
:1002D0003648006840F0010034490860084640682C
:1002E00034490840314948600846006832490840AE
:1002F0002E4908600846006820F4802008600846FF
:10030000406820F4FE0048604FF41F008860FFF74B
:10031000DAFF4FF000602949086010BD10B50021D8
:1003200000200022214B5B6803F00C0121B104295D
:1003300006D0082928D107E0214B224C236027E072
:100340001F4B204C236023E0184B5B6803F47010B4
:10035000164B5B6803F48032022303EB904022B912
:10036000194B4343174C23600DE0104B5B6803F4BB
:10037000003323B1144B4343124C236003E0104B72
:100380004343104C236003E00D4B0E4C236000BF31
:1003900000BF064B5B68C3F303130C4CE15C094BD5
:1003A0001B68CB40074C236010BD000000100240CA
:1003B000002002400000FFF8FFFFF6FE08ED00E01D
:1003C00000127A000000002000093D000400002017
:1003D00010B586B004460121042001F033F8012154
:1003E000880301F02FF84FF40070ADF814000320DB
:1003F0008DF8160018208DF8170005A95D4800F04B
:1004000065FD4FF48060ADF8140004208DF81700EE
:1004100005A9584800F05AFD25208DF8000001205C
:100420008DF8010002208DF8020001208DF80300F4
:10043000684601F074FA01940020ADF80800ADF8A8
:100440000A00ADF80C00ADF810000C20ADF80E005D
:1004500001A9494801F09DF8012240F22551464882
:1004600001F02FF90121444801F01FF906B010BD39
:1004700070B505460C464048844202D13F4800789A
:10048000B8B93F48844202D13C48407888B93D48D9
:10049000844202D13948807858B93B48844202D11D
:1004A0003648C07828B9394884420DD1334800799C
:1004B00050B103E02946204601F064F9402120466E
:1004C00001F0CEF90028F5D070BD70B506460C4697
:1004D000002531465520FFF7CBFF3146AA20FFF714
:1004E000C7FF20783146FFF7C3FF60783146FFF73A
:1004F000BFFFA0783146FFF7BBFF2078FF3061785F
:100500000844A1780844C4F8040100BF0DE0E11CD0
:10051000485D3146FFF7ACFFE01C405DD4F80411A4
:100520000844C4F80401681C85B26078A842EEDC77
:1005300000250BE0C5F10302D200D4F804111141EB
:10054000C8B23146FFF794FF681C85B2042DF1DB79
:1005500070BD0F490860704770B504460D46E0B2A3
:100560000B490968FFF784FF204670BD10B500F005
:1005700061F910BD0008014000380140140000205E
:100580000044004000480040004C00400050004043
:100590001C000020A0F11A020B2A7FD2DFE802F033
:1005A00006111C27323D48535E697400012902D1AF
:1005B0000122FE4B1A70062902D10622FB4B1A704B
:1005C0006DE0072902D10722F94B1A700C2902D1DC
:1005D0000C22F74B1A7062E00D2902D10D22F54B67
:1005E0001A70122902D11222F24B1A7057E0132905
:1005F00002D11322F04B1A70182902D11822EE4BA7
:100600001A704CE0192902D11922EC4B1A701E29DC
:1006100002D11E22E94B1A7041E01F2902D11F228C
:10062000E74B1A70222902D12222E54B1A7036E0DC
:10063000232902D12322E34B1A70262902D1262234
:10064000E04B1A702BE0272902D12722DE4B1A70CB
:100650002A2902D12A22DC4B1A7020E02B2902D150
:100660002B22DA4B1A702E2902D12E22D74B1A7068
:1006700015E02F2902D12F22D54B1A7011B9002273
:10068000D34B1A700BE009E0302902D13022D14B54
:100690001A7011B90022CF4B1A7000E000BF00BFE2
:1006A0007047C2480078012801D1CB490860BF4893
:1006B0000078062802D10020C7490860BC480078AD
:1006C000072803D10120C449091D0860B8480078F3
:1006D0000C2803D10020C049091D0860B5480078E6
:1006E0000D2803D10120BC4908310860B1480078C9
:1006F000122803D10020B84908310860AE480078BC
:10070000132803D10120B4490C310860AA480078AD
:10071000182803D10020B0490C310860A7480078A0
:10072000192803D10120AC4910310860A348007892
:100730001E2803D10020A84910310860A048007885
:100740001F2803D10120A449143108609C48007877
:10075000222803D10020A04914310860994800786C
:10076000232803D101209C4918310860954800785E
:10077000262803D100209849183108609248007853
:10078000272803D1012094491C3108608E48007845
:100790002A2803D1002090491C3108608B4800783A
:1007A0002B2803D101208C4920310860874800782C
:1007B0002E2803D100208849203108608448007821
:1007C0002F2802D10120854908608148007810B99E
:1007D0000020824908607F480078302802D101203B
:1007E0007F4908607B48007810B900207C49086088
:1007F000704770B503460C464FF6FF71002212E0B9
:100800009E5C714000250AE001F0010626B1491006
:100810004AF20106714000E049106E1CF5B2082D45
:10082000F2DB561CB2B2A242EADB081240EA012611
:10083000B0B270BD10B540F225516A4801F026F8FB
:10084000002879D0674800F0A1FFC4B2664800785C
:10085000082872D2DFE800F0042340506072828AD8
:10086000012C0AD1614862490860624804705E4800
:100870000078401C5C4908700FE000205A4908705D
:100880005D4908705D4908705D4908705D490870F0
:100890005D4908805649086000BF00BFC2E0062CD1
:1008A0000AD1012059490870084644704E48007822
:1008B000401C4D4908700EE000204B4908704E491D
:1008C00008704E4908704E4908704E4908704E49EC
:1008D000088047490860A5E048480470007844490A
:1008E0000968087045480078484988703E48007893
:1008F000401C3D49087095E03F48047000783C4931
:10090000096848703C4800784049C870364800780B
:10091000401C3549087085E0394804700078344936
:100920000968887036480078384908712E48007880
:10093000401C2D49087075E075E072E03148047084
:1009400000782B490968C8702E4800782F494871F3
:1009500025480078401C2449087063E02A48048038
:1009600021480078401C204908705BE02648007848
:1009700044EA00201E490968888006212348FFF7C1
:1009800038FF1B4909688988884205D10120184928
:10099000096888711E4908700020134908701649BB
:1009A0000870164908701649087033E031000020BD
:1009B00032000020330000203400002035000020E9
:1009C00036000020370000203800002039000020C9
:1009D0003A0000203B0000209C012342A8812142D4
:1009E000A8012242003801403C00002028000020DD
:1009F00044000020200000203E0000203D00002098
:100A00003F00002040000020420000206400002041
:100A10003000002016490870164908801649086001
:100A200000BF00BF00BF10BD70B5002413481449BB
:100A300008600120134908700620487007E010483C
:100A40000068015DE01C0F4A1154601CC4B2042C04
:100A5000F5DB07210B48FFF7CCFE054628120949B4
:100A6000C8710D7201220921064800F037F970BDE6
:100A7000400000204200002044000020220000200E
:100A8000480000206801002008B501210C2000F07A
:100A9000D9FC0121302000F0D5FC0121402000F0DC
:100AA000D1FC10208DF8030003208DF802002020D7
:100AB000ADF800006946844800F008FA2021824819
:100AC00000F0B3FA4FF40060ADF8000069467F48CB
:100AD00000F0FCF94FF400617D4800F0A6FA802098
:100AE000ADF8000069467B4800F0F0F980217948B4
:100AF00000F09BFA4FF48070ADF80000694675482D
:100B000000F0E4F94FF48071724800F08EFA4FF46F
:100B10000070ADF8000069466E4800F0D7F94FF458
:100B200000716C4800F081FA4FF48060ADF800006D
:100B30006946684800F0CAF94FF48061654800F0E2
:100B400074FA4FF40060ADF800006946614800F0A7
:100B5000BDF94FF400615F4800F067FA4FF4805030
:100B6000ADF8000069465B4800F0B0F94FF48051E1
:100B7000584800F05AFA4FF40050ADF800006946AA
:100B8000544800F0A3F94FF40051524800F04DFAD8
:100B90004FF48040ADF8000069464E4800F096F9E9
:100BA0004FF480414B4800F040FA4FF40040ADF85C
:100BB00000006946474800F089F94FF40041454874
:100BC00000F033FA4FF48060ADF800006946404809
:100BD00000F07CF94FF480613D4800F026FA4FF4B4
:100BE0008060ADF800006946374800F06FF94FF4B7
:100BF0008061354800F019FA4FF40060ADF800004C
:100C00006946314800F062F94FF400612E4800F067
:100C10000CFA4FF48050ADF8000069462A4800F005
:100C200055F94FF48051284800F0FFF90120ADF844
:100C300000006946284800F049F90121264800F0E3
:100C4000F4F90220ADF800006946234800F03EF9AF
:100C50000221214800F0E9F90420ADF800006946BE
:100C60001D4800F033F904211B4800F0DEF908208C
:100C7000ADF800006946184800F028F90821164828
:100C800000F0D3F91020ADF800006946124800F0DA
:100C90001DF91021104800F0C8F92020ADF800001F
:100CA00069460D4800F012F920210B4800F0BDF90B
:100CB0004020ADF800006946074800F007F94021E0
:100CC000054800F0B2F908BD0010014000080140DD
:100CD000000C014000180140001401402DE9F041D2
:100CE00005460E4617460024012F0FD100BF0BE02A
:100CF00000BF4021064800F0B3FD0028F9D0295D6F
:100D0000034800F03FFD641CB442F1DBBDE8F08114
:100D10000038014010B56FF0040000F04AFE2E4884
:100D200000682E49B0FBF1F02D49087008460078A4
:100D300000EB4001C1EBC0104FF6FF7101EAC000AB
:100D40002849088010BD0146254A12784A434FF0D1
:100D5000E0235A6100229A611A46126942F00102A8
:100D60001A6100BF4FF0E022106900F001021AB1D1
:100D700000F48032002AF5D04FF0E022126922F010
:100D800001024FF0E0231A6100229A617047014688
:100D9000144A12884A434FF0E0235A6100229A61B4
:100DA0001A46126942F001021A6100BF4FF0E022B8
:100DB000106900F001021AB100F48032002AF5D067
:100DC0004FF0E022126922F001024FF0E0231A6195
:100DD00000229A61704700000000002000127A0093
:100DE0004C0000204E00002006488047064800477F
:100DF000FEE7FEE7FEE7FEE7FEE7FEE7FEE7FEE7CB
:100E0000FEE7FEE7CF0200083101000810B50446F6
:100E1000CC48844208D10121042000F02DFB0021A0
:100E2000042000F029FB46E0C748844208D1012194
:100E3000082000F021FB0021082000F01DFB3AE013
:100E4000C248844208D10121102000F015FB002186
:100E5000102000F011FB2EE0BD48844208D1012192
:100E6000202000F009FB0021202000F005FB22E0FB
:100E7000B848844208D10121402000F0FDFA002149
:100E8000402000F0F9FA16E0B348844208D101216D
:100E9000802000F0F1FA0021802000F0EDFA0AE055
:100EA000AE48844207D10121801500F0E5FA002107
:100EB000A01500F0E1FA10BD10B50121084600F0C0
:100EC000DBFA0021012000F0D7FA10BD2DE9F04136
:100ED000024600250026002000230024002791F868
:100EE00003C00CF00F0591F803C00CF0100CBCF11E
:100EF000000F03D091F802C04CEA050591F800C03C
:100F0000BCF1000F31D0146800202BE04FF0010C31
:100F10000CFA00F3B1F800C00CEA03069E4220D19F
:100F200083004FF00F0C0CFA03F7BC4305FA03FCE7
:100F30004CEA040491F803C0BCF1280F06D14FF02D
:100F4000010C0CFA00FCC2F814C00AE091F803C0CE
:100F5000BCF1480F05D14FF0010C0CFA00FCC2F8AF
:100F600010C0401C0828D1D31460B1F800C0BCF1F7
:100F7000FF0F34DD546800202EE000F1080C4FF024
:100F8000010808FA0CF3B1F800C00CEA03069E420F
:100F900021D183004FF00F0C0CFA03F7BC4305FA84
:100FA00003FC4CEA040491F803C0BCF1280F05D1FE
:100FB00000F1080C08FA0CF8C2F8148091F803C08C
:100FC000BCF1480F07D100F1080C4FF0010808FAF6
:100FD0000CF8C2F81080401C0828CED35460BDE83D
:100FE000F0814FF6FF710180022181700421C170F0
:100FF00070470246002093680B400BB1012000E0CF
:10100000002070470146886880B270470246002081
:10101000D3680B400BB1012000E00020704701466F
:10102000C86880B2704701617047416170470AB17A
:10103000016100E041617047C16070474FF4803248
:101040000A438261816182618269826970470246D6
:101050000020434B18684FF68073184040EA021096
:1010600008433F4B186070473E49C8617047F0B570
:101070000A46002300240021002500F00046B6F1B6
:10108000004F02D1364EF16901E0354E7168C0F370
:10109000034583B200F44016B6F5401F08D121F095
:1010A00070612F4E766826F070662D4F7E6012E0DC
:1010B00000F48016B6F5801F06D1032606FA05F463
:1010C000A14341F0706106E0460D360103FA06F6D1
:1010D000B14341F0706122B1460D360103FA06F6C4
:1010E000314300F00046B6F1004F02D11C4EF161D1
:1010F00001E01B4E7160F0BD30B500228B071C0F64
:101100000F2303FA04F2164B08338C1053F82430E3
:101110009343134C08348D1044F8253023468C102B
:1011200053F824308C07240F00FA04F423430C4CAA
:1011300008348D1044F8253030BD0A49DC31086090
:101140007047000000080140000C01400010014001
:101150000014014000180140001C01400020014023
:101160000000014000002042DF48006840F001001C
:10117000DD49086008464068DC490840DA494860B3
:1011800008460068DA490840D74908600846006800
:1011900020F4802008600846406820F4FE00486083
:1011A0004FF41F0088607047CF49096821F48031EF
:1011B000CD4A11601146096821F480211160B0F513
:1011C000803F03D0B0F5802F0ED106E0C6490968F4
:1011D00041F48031C44A116007E0C349096841F411
:1011E000A021C14A116000E000BF00BF704710B5E8
:1011F00001460022002300204A11012A02D1BA4CE4
:10120000236806E0022A02D1B74C236A01E0B64CFB
:10121000636A01F01F02012494401C400CB10120BC
:1012200000E0002010BD38B500200090002400250B
:1012300000BF3120FFF7DBFF05460098401C0090FF
:101240000098B0F5A06F01D0002DF2D03120FFF74B
:10125000CEFF08B1012400E00024204638BD01463D
:101260000020A14A106820F0F80040EAC100106098
:101270007047A04908607047024600209A4B5868A2
:1012800020F47C1042EA01031843974B58607047E2
:1012900098490866704701460020934A506820F03C
:1012A00003000843506070478F48406800F00C000E
:1012B0007047014600208C4A506820F0F000084337
:1012C0005060704701460020874A506820F4E06073
:1012D00008435060704701460020834A506820F45C
:1012E000605040EAC1005060704729B17E4A527A8E
:1012F00002437D4B5A7204E07B4A527A82437A4B16
:101300005A7270477B49D831086070470146002007
:10131000754A506820F440400843506070470021EF
:10132000714A20321170704A82F82010012802D0D0
:1013300004280AD104E001216B4A2032117005E033
:101340000521694A2032117000E000BF00BF7047DC
:101350006949086070476449096A0143624A116239
:101360007047654944390860704730B50021002254
:10137000002400235C4D6D6805F00C0121B10429A7
:1013800005D0082923D105E05C4D056022E05B4DC6
:1013900005601FE0544D6D6805F47012524D6D6884
:1013A00005F48034022505EB92421CB9544D554397
:1013B00005600BE04C4D6D6805F400351DB1504DD6
:1013C0005543056002E04D4D5543056002E04B4D2D
:1013D000056000BF00BF444D6D6805F0F0010909CC
:1013E000484D6B5C0568DD4045603F4D6D6805F418
:1013F000E061090A434D6B5C4568DD4085603A4D0C
:101400006D6805F46051C90A3E4D6B5C4568DD406E
:10141000C560354D6D6805F44041890B3A4D6B5CF4
:10142000C568B5FBF3F5056130BD29B12E4A526997
:1014300002432D4B5A6104E02B4A526982432A4BE6
:101440005A61704729B1284A92690243264B9A6132
:1014500004E0254A92698243234B9A61704729B17F
:10146000214AD2690243204BDA6104E01E4AD26964
:1014700082431D4BDA61704729B11B4AD26802438F
:10148000194BDA6004E0184AD2688243164BDA60DE
:10149000704729B1144A12690243134B1A6104E0E0
:1014A000114A12698243104B1A6170471249403940
:1014B000086070470F49C86470470B49C87170478E
:1014C0000948406A40F08070074948627047014609
:1014D0000020054A92680A400AB1012000E000207D
:1014E0007047014988727047001002400000FFF801
:1014F000FFFFF6FE000042428004424200127A00E2
:1015000000093D00500000206000002010B5044696
:10151000FB48844209D101218803FFF7ADFF002178
:101520004FF48040FFF7A8FF32E0F648844209D12B
:1015300001214804FFF7ADFF00214FF40030FFF711
:10154000A8FF25E0F048844209D101218804FFF773
:10155000A0FF00214FF48020FFF79BFF18E0EB482D
:10156000844209D10121C804FFF793FF00214FF401
:101570000020FFF78EFF0BE0E548844208D10121EF
:101580000805FFF786FF00214FF48010FFF781FF69
:1015900010BD2DE9F04786B005460E460024A24650
:1015A00000BFA1460027B08900B100BF2F462C8A9A
:1015B0004CF6FF700440F08804432C82AC894EF650
:1015C000F3100440B088318908437189084304430B
:1015D000AC81AC8A4FF6FF400440B0890443AC8232
:1015E00001A8FFF7C2FEC648874202D1DDF810A06D
:1015F00001E0DDF80CA0A88900F4004040B10AEB3E
:10160000CA0000EB0A1031684900B0FBF1F807E0AE
:101610000AEBCA0000EB0A1031688900B0FBF1F850
:101620006420B8FBF0F004012009642101FB10895B
:10163000A88900F4004040B1322000EBC900B0FBA3
:10164000F1F000F00700044308E0322000EB09103D
:101650006421B0FBF1F000F00F0004432C8106B0D0
:10166000BDE8F0874FF41651016000218180C180F0
:1016700001810C21418100218181704710B5024612
:101680000020108A4FF2FF0318400B884C88234338
:101690008C882343CC8823431843108210BD00213B
:1016A000018041808180C180704721B1828942F4EC
:1016B0000052828104E082894DF6FF731A408281D4
:1016C0007047F0B50346002400260025002040F6B0
:1016D0006A17B94200D100BF1846C1F3421401F0A5
:1016E0001F06012707FA06F5012C01D10C3004E092
:1016F000022C01D1103000E014301AB107682F43DA
:10170000076002E00768AF430760F0BD1AB1838A43
:101710000B43838202E0838A8B4383827047028A71
:101720004FF6F0731A400282028A0A43028270471F
:1017300082894FF2FF731A40828182890A43828133
:10174000704721B1828942F00202828104E08289DD
:101750004FF6FD731A4082817047028A4FF6DF739D
:101760001A400282028A0A430282704721B1028A29
:1017700042F48042028204E0028A4BF6FF731A4070
:1017800002827047C1F30802828070470146888850
:10179000C0F308007047818941F0010181817047E1
:1017A000028BD2B20283028B42EA0122028370478B
:1017B000028B02F47F420283028B0A43028370474A
:1017C00021B1828A42F02002828204E0828A4FF6AE
:1017D000DF731A408282704721B1828A42F0100280
:1017E000828204E0828A4FF6EF731A408282704749
:1017F00021B1828A42F00802828204E0828A4FF696
:10180000F7731A408282704721B1828942F4004204
:10181000828103E08289C2F30E028281704721B186
:10182000828A42F40062828204E0828A4FF2FF736D
:101830001A4082827047828A4FF6FB731A40828276
:10184000828A0A438282704721B1828A42F0020270
:10185000828204E0828A4FF6FD731A4082827047CA
:1018600002460020B1F5007F00D100BF13880B4075
:101870000BB1012000E00020704701F40072B2F5C6
:10188000007F00D100BFCA430280704770B5024696
:10189000002400230025002040F66A16B14200D142
:1018A00000BFC1F3421501F01F03012606FA03F33E
:1018B000012D02D19689334006E0022D02D1168A0D
:1018C000334001E0968A33400C12012606FA04F4F4
:1018D0001688344013B10CB1012000E0002070BD27
:1018E00010B50022002340F66A14A14200D100BFC7
:1018F0000A1201249440A3B2DC43048010BD00000E
:10190000003801400044004000480040004C0040C6
:101910000050004031490143314A1160704770B5B1
:10192000002100230F22C47804B32D4C246804F452
:10193000E064C4F5E064210AC1F10403CA404478BC
:1019400004FA03F18478144021430901254C0678F8
:10195000A155047804F01F050124AC4005786D11F1
:10196000AD0005F1E025C5F8004109E0047804F078
:101970001F050124AC401C4D0678761145F8264021
:1019800070BD1A4A0A400243154B1B1F1A6070476C
:1019900039B1134A121D12680243114B1B1D1A6004
:1019A00006E00F4A121D126882430D4B1B1D1A6080
:1019B0007047042808D14FF0E021096941F0040183
:1019C0004FF0E022116107E04FF0E021096921F0BA
:1019D00004014FF0E0221161704700000000FA0599
:1019E0000CED00E000E400E080E100E080FFFF1F7C
:1019F000064C074D06E0E06840F0010394E807005C
:101A000098471034AC42F6D3FEF796FB341A000820
:101A1000541A000802E008C8121F08C1002AFAD1AF
:101A200070477047002001E001C1121F002AFBD15E
:101A300070470000541A00080000002064000000F5
:101A4000141A0008B81A0008640000206C05000091
:101A5000241A000800A24A04000000000000000050
:101A6000010203040607080900000000000000004E
:101A70000000000000000000000000000000000066
:101A80000000000000060C12181E22262A2E00005C
:101A90000000000000000000000000000000000046
:101AA0000000000000000000010203040102030422
:081AB0000607080902040608FC
:0400000508000131BD
:00000001FF
